S0110000537479726D6F64756C2E7372656340
S113000045C0000061C000005EC000005CC000008C
S11300105AC0000058C0000056C0000054C0000080
S113002052C0000050C000004EC000004CC0000090
S11300304AC0000048C0000046C0000044C00000A0
S113004042C0000040C000003EC000003CC00000B0
S11300503AC0000038C0000036C0000034C00000C0
S113006043C0000030C000002EC000002CC00000BF
S11300702AC0000028C0000026C0000024C00000E0
S113008022C0000020C000001EC0000011241FBEBA
S1130090CFEFD0E4DEBFCDBF11E0A0E0B1E0E6E5F4
S11300A0F2E000E00BBF02C007900D92A430B1074C
S11300B0D9F721E0A4E0B1E001C01D92A730B20756
S11300C0E1F737D0C6C09CCF1F920F920FB60F92A4
S11300D01124809104018F5F8093040180910401B5
S11300E0815080930401F5CF1F920F920FB60F92A7
S11300F011248F938091790085B98F910F900FBE51
S11301000F901F90189582E08093C00088E0809340
S1130110C40088E18093C10086E08093C200089502
S1130120E0ECF0E080818823ECF78091C60090E059
S113013008958EEF8AB982EA809380008AE18093E1
S1130140810080E29EE490938700809386008CED8A
S113015095E0909389008093880090938B0080931E
S11301608A00D1DF0F2EFFE0CF2EF02D0F2EF8E8FE
S1130170EF2EF12CF02DCCEDD5E00AE810E00F2E97
S1130180F4E1DF2EF02DCCDF90930601809305017E
S113019080910501909106018038910564F52091C4
S11301A0050130910601D29EC001D39E900D112409
S11301B088519C4F90930301809302018091020126
S11301C090910301813D97403CF48091020190910C
S11301D00301883E93403CF4F701D183C083F801C6
S11301E0D183C083D0CF8091020190910301F701A4
S11301F091838083C8CF20910501309106012F7728
S11302003327C29EC001C39E900D11248B599B4F6E
S1130210909301018093000180910001909101016C
S1130220843597403CF4809100019091010185361A
S113023094403CF4F701D183C083F801D183C08397
S1130240A2CF8091000190910101F80191838083F4
S10902509ACFF894FFCFE1
S1070256DC05DC05DE
S9030000FC
