:1000000045C0000061C000005EC000005CC0000090
:100010005AC0000058C0000056C0000054C0000084
:1000200052C0000050C000004EC000004CC0000094
:100030004AC0000048C0000046C0000044C00000A4
:1000400042C0000040C000003EC000003CC00000B4
:100050003AC0000038C0000036C0000034C00000C4
:1000600043C0000030C000002EC000002CC00000C3
:100070002AC0000028C0000026C0000024C00000E4
:1000800022C0000020C000001EC0000011241FBEBE
:10009000CFEFD0E4DEBFCDBF11E0A0E0B1E0E4E4FB
:1000A000F3E000E00BBF02C007900D92A430B1074F
:1000B000D9F721E0A4E0B1E001C01D92A730B2075A
:1000C000E1F75FD03DC19CCF1F920F920FB60F9208
:1000D0001124809104018F5F8093040180910401B9
:1000E000815080930401F5CF1F920F920FB60F92AB
:1000F00011248F938091790085B98F910F900FBE55
:100100000F901F90189582E08093C00088E0809344
:10011000C40088E18093C10086E08093C200089506
:10012000CF93DF9310929500109294008091C000BD
:100130008823B4F0C5E9D0E0A4E9B0E0E0ECF0E059
:1001400028818C9190E0922B2081222334F08930F9
:100150009D43B4F38FEF9FEF09C089309D4324F492
:100160008091C60090E002C08FEF9FEFDF91CF91AA
:100170000895E0ECF0E0908195FFFDCF8093C600FC
:1001800008958EEF8AB982EA809380008AE1809395
:10019000810085E08093910080E29EE49093870047
:1001A000809386008CED95E0909389008093880081
:1001B00090938B0080938A00A6DF0F2EF8E8EF2E35
:1001C000F12CF02DCCEDD5E00AE810E0A9DF9093FA
:1001D0000601809305018091050190910601019629
:1001E00039F4F701D183C083F801D183C083EECF06
:1001F00080910501909106018C3F9105D1F48AEF21
:10020000B8DF0F2EFFE0AF2EF02D08E810E0CCEDA8
:10021000D5E00F2EFAE8EF2EF12CF02D0F2EF4E1A1
:10022000BF2EF02D0F2EF8E7CF2EF5E0DF2EF02DAC
:1002300003C081E09EDFCACF73DF909306018093F5
:1002400005018091050190910601803891050CF01F
:1002500040C02091050130910601B29EC001B39EBD
:10026000900D112488519C4F9093030180930201BB
:100270008091050190910601049724F4F801D1833F
:10028000C083DACF8091050190910601499724F44B
:10029000F801D182C082D0CF8091020190910301F8
:1002A000813D97403CF48091020190910301883E8A
:1002B00093403CF4F801D183C083F701D183C0831C
:1002C000BBCF8091020190910301F801918380835B
:1002D000B3CF20910501309106012F773327A29EDD
:1002E000C001A39E900D11248B599B4F9093010147
:1002F0008093000180910501909106018C3F91054A
:1003000011F48AEF36DF809100019091010184356C
:1003100097403CF480910001909101018536944012
:100320003CF4F801D183C083F701D183C08384CF2B
:100330008091000190910101F701918380837CCF2E
:04034000F894FFCF5F
:04034400DC05DC05F3
:00000001FF
