S013000053656E736F726D6F64756C2E7372656376
S113000045C0000054C0000051C000004FC00000B3
S11300104DC000004BC0000049C0000047C00000B4
S113002045C0000043C0000041C000003FC00000C4
S11300303DC000003BC0000039C0000037C00000D4
S113004035C0000033C0000031C000002FC00000E4
S11300502DC000002BC0000029C0000027C00000F4
S113006025C0000023C0000021C000001FC0000004
S11300701DC000001BC0000019C0000017C0000014
S113008015C0000013C0000011C0000011241FBEE1
S1130090CFEFD0E4DEBFCDBF21E0A0E0B1E001C0EE
S11300A01D92A630B207E1F759D06CC0A9CF1F92B8
S11300B00F920FB60F9211240BB60F922F938F93BA
S11300C09F93AF93BF93EF93FF93809102018F5F50
S11300D080930201E4E8F0E0808180930301A5E8C5
S11300E0B0E08C918093050180818093040120917C
S11300F005018091040190E0922B9093010180937B
S113010000011C92108210920201FF91EF91BF91A5
S1130110AF919F918F912F910F900BBE0F900FBEB7
S11301200F901F9018958FE08093690083E08DBB3A
S11301307894089582E08093C00088E08093C4009E
S11301408093C10086E08093C2000895E0ECF0E063
S1130150908195FFFDCF8093C6000895EBDFE3DF28
S113016085E0809381008093910083EC99E001976E
S1130170F1F700C0000080910501E8DF80910401DF
S10B0180E5DFF3CFF894FFCF93
S9030000FC
